:020000040000FA
:100000001124669A26E030E408C000000197E9F761
:100010008DB183278DB9215019F081E091E7F6CF9A
:1000200080911F138B3E69F48FEF80931F138DE92E
:1000300093E084BF909300108091021081FDFCCF6B
:1000400006C082E080930110E0E0F1E0099580ECC9
:1000500080930608A09123110A2E000CBB0BBC5FF5
:100060002CE530E00E9476007E5F8F4F9F4F2AE0A4
:1000700095958795779567952A95D1F760930808A8
:10008000709309088091E20581608093E205049AEB
:10009000E0E0F2E42DE933E040E41EC08091040882
:1000A00087FFFCCF80910008E11552E4F50711F4B9
:1000B000882391F0809302088193CF018F7799274D
:1000C000892B51F424BF309300108091021080FDE1
:1000D000FCCF8DB184278DB9CF0190548115904C00
:1000E000E8F288ED91E084BF909341000E947D008A
:1000F000B7FF0895821B930B0895A29FB001B39F91
:10010000C001A39F700D811D1124911DB29F700D20
:08011000811D1124911D0895C9
:100200000C9461010C9489010C9489010C9489016E
:100210000C9489010C9489010C94AE1E0C948901F4
:100220000C9489010C9489010C9489010C94890126
:100230000C9489010C9489010C94371F0C94E81FCD
:100240000C9489010C9489010C9489010C94890106
:100250000C943F1E0C9489010C9489010C94890123
:100260000C94641E0C9489010C9489010C948901EE
:100270000C9489010C94F51D0C9489010C9489014E
:100280000C9489010C9489010C94891E0C941A1EFB
:100290000C94D31E0C9489010C9489010C9489014F
:1002A00005A84CCDB2D44EB93836A9020C50B9913C
:1002B0008688083CA6AAAA2ABE000000803FFD202E
:1002C000A82011241FBECFEFCDBFDFE3DEBF18E2B1
:1002D000A0E0B8E2E4E2F5E602C005900D92A2319A
:1002E000B107D9F722E3A2E1B8E201C01D92AA3812
:1002F000B207E1F711E0C0E6D1E004C02197FE01AA
:100300000E94C82ECF35D107C9F70E9447260C940A
:10031000C5300C94000190E0FC01E155FC45E08102
:10032000EF3F49F18A579C45DC012C91822F880FC1
:10033000880F880F8E0F8033F0F490E0880F991F9C
:10034000DC01A859B14D46ED52E14D935C93885FB5
:10035000914DDC011D921C92B0E22B9FC001112433
:100360009C5F4096E80FF92FF11D8081887F808384
:10037000808181608083089580E991E008950895E7
:10038000AF92BF92CF92DF92EF92FF920F931F93A3
:10039000CF93DF936C017B018B01040F151FEB01E1
:1003A0005E01AE18BF08C017D10759F06991D60198
:1003B000ED91FC910190F081E02DC6010995892B0A
:1003C00079F7C501DF91CF911F910F91FF90EF90C9
:1003D000DF90CF90BF90AF900895EF92FF920F9370
:1003E0001F93CF93DF93C82FD0E0A09695E0CC0F5A
:1003F000DD1F9A95E1F7E984F82EFF0CFF0CFF0C46
:1004000001E010E08E2D8023A9F02F2D210F30E088
:10041000220F331FF901E859F14D80819181892B19
:1004200049F00190F081E02D285F314DD9018D9187
:100430009C9109951F5F000F183021F7E986DF9125
:10044000CF911F910F91FF90EF900895CF93DF937D
:1004500090E0FC01EB5CFC4520812F3F71F0FC013A
:10046000EA57FC45A08130E2A39FD0011124BC5F74
:100470006130710529F411962C93DF91CF91089585
:1004800081559C45EC01E881EF3F89F0CD01409614
:10049000E80FF92FF11D9FB7F89412962C938081E5
:1004A0006230710539F4886080839FBFE6CFF0E049
:1004B000E0E0F1CF877FF8CF893210F40C94260268
:1004C0000895282F30E0F901E45FFC45E081EE2338
:1004D00009F1E13021F0F0F0E63098F00895409114
:1004E000010A21553C45F90120812C5F81E090E013
:1004F00001C0880F2A95EAF7809584238093010A2A
:10050000089580E1E89FF0011124E05AF54F8181C0
:100510008F7E81830895FF920F931F93CF93DF9374
:10052000082F10E0F801EB5CFC45F0809FEFF91616
:10053000A1F0EB01893210F40E946102F801EA5740
:10054000FC45E08180E2E89FF0011124FC5F80819E
:100550008F2159F0CD2B39F4F682DF91CF911F9185
:100560000F91FF900895F582F8CFD801A155BC45B1
:100570008C91309771F08F3F61F07096E80FF11D0C
:100580009FB7F8948081CD2B39F4877F80839FBFFC
:10059000E4CFF0E0E0E0F4CF8860F8CF893210F4E7
:1005A0000C948B0208950F931F93CF938932E8F434
:1005B000082F10E0F801EB5CFC45C081CF3FA9F0AB
:1005C0000E946102F801EA57FC45E08180E2E89F61
:1005D000F0011124FC5F8085C82381E090E009F4DC
:1005E00080E0CF911F910F91089580E090E0F9CFC6
:1005F000CF93DF938FB7F89420914329309144290A
:100600004091452950914629E091BA0A9091B60A45
:1006100090FF06C02F5F3F4F4F4F5F4FE091BA0AE8
:100620008FBFA0914D29B0914E29C0914B29D091F7
:100630004C290E94B82CEC9F9001ED9F300D1124A5
:10064000620F731F811D911DDF91CF9108958F92CD
:100650009F92AF92BF92CF92DF92EF92FF924B01A7
:100660005C010E94F8026B017C01A8EEB3E0A501D9
:1006700094010E94B82CC60ED71EE81EF91EC6169D
:10068000D706E806F90618F40E94F802F8CF0E948F
:10069000F8026C157D058E059F05C8F3FF90EF905D
:1006A000DF90CF90BF90AF909F908F9008952FB71D
:1006B000F89460913F29709140298091412990914F
:1006C00042292FBF08950895EF92FF920F931F9331
:1006D000CF93DF937C01EB018B01040F151FC01733
:1006E000D10759F0D701ED91FC910480F581E02DFF
:1006F0006881C70109958993F2CFDF91CF911F914E
:100700000F91FF90EF9008950F931F93CF93DF9376
:10071000EC018B018091C008E881F9810480F581AA
:10072000E02D86FD13C0612FCE010995182FE881B9
:10073000F9810480F581E02D602FCE010995082F05
:10074000C801DF91CF911F910F910895CE010995B6
:10075000082FE881F9810480F581E02D612FCE0119
:100760000995182FEDCF00006093C4088091C3084D
:1007700087FFFCCF8091C40808958F929F92AF921B
:10078000BF92CF92DF92EF92FF920F931F93CF937E
:10079000DF93FC018085882319F081FF0EC07894D7
:1007A000DF91CF911F910F91FF90EF90DF90CF904D
:1007B000BF90AF909F908F90089580FFF1CF82847B
:1007C0009384A484B584C12CD12C760110E09401CB
:1007D000A501B601C701A0E00E94BC2E99F12170CD
:1007E00030E040E050E060E070E080E090E00E94A7
:1007F000BC2ED9F0D0E0C0E0103370F4C12FC69504
:10080000C695C69580E2C89FE0011124C05FDB4F0A
:10081000812F8770C80FD11DCF01810F911DDC0181
:1008200052968C919881892B88839401A501B601F9
:10083000C70101E00E94A12E49015A016B017C0110
:100840001F5FC5CF86849784A088B188C12CD12C26
:10085000760110E29401A501B601C701A0E00E9453
:10086000BC2E09F49DCF217030E040E050E060E004
:1008700070E080E090E00E94BC2ED9F0D0E0C0E0B3
:10088000103370F4C12FC695C695C695B0E2CB9FC4
:10089000E0011124C05FDB4F812F8770C80FD11D8D
:1008A000CF01810F911DDC0152968C919881892B8B
:1008B00088839401A501B601C70101E00E94A12E21
:1008C00049015A016B017C011F5FC4CFFC016F3FDE
:1008D000710581F1808581FD2DC0603271055CF567
:1008E00081E090E002C0880F991F6A95E2F7809539
:1008F0009095092E000CAA0BBB0B4285538564858D
:10090000758584239523A623B72382879387A4879D
:10091000B58782859385A485B585892B8A2B8B2BFA
:1009200049F486859785A089B189892B8A2B8B2BE1
:1009300009F4108608956052710981E090E002C0C8
:10094000880F991F6A95E2F780959095092E000C03
:10095000AA0BBB0B46855785608971898423952333
:10096000A623B72386879787A08BB18BD2CFFC01B4
:100970006F3F7105E9F1603371051CF082E08087FB
:10098000089580858160808760327105C4F481E0BC
:1009900090E002C0880F991F6A95E2F7092E000CBB
:1009A000AA0BBB0B4285538564857585842B952BDB
:1009B000A62BB72B82879387A487B58708956052AB
:1009C000710981E090E002C0880F991F6A95E2F7F3
:1009D000092E000CAA0BBB0B4685578560897189CF
:1009E000842B952BA62BB72B86879787A08BB18B53
:1009F0000895E0ECF8E020812E7F2083FC0117822F
:100A00000895E0ECF8E082818E7F82830895E0EC27
:100A1000F8E08281816082830895CF93DF931F92F3
:100A2000CDB7DEB78983698188EC9EE20F90DF91B4
:100A3000CF910C94B3030F931F93CF938C01C62FC8
:100A400081E00E940D05F80180810E940D05C130F2
:100A500031F48EEECF911F910F910C940D05CF9133
:100A60001F910F910895CF93DF93EC018FEF0E94B8
:100A70000D058883DF91CF910895CF93DF931F9267
:100A8000CDB7DEB71982CE0101960E943305898168
:100A90000F90DF91CF910895CF93DF93C9EED3E00C
:100AA0000E943D058F3E69F0219711F0803EC1F70D
:100AB00021E090E0803E09F020E0822FDF91CF918D
:100AC00008958FEF9FEFFACFCF92DF92EF92FF92D0
:100AD0000F931F93CF93DF931F92CDB7DEB7182FDD
:100AE0006B017A0119820E944C05892B61F490E018
:100AF00080E00F90DF91CF911F910F91FF90EF90C9
:100B0000DF90CF900895CE0101960E9433051068C2
:100B100089811813ECCFCE0101960E94330589819B
:100B2000813029F78FEF0E940D05F701808310E0D7
:100B300000E0F70180818017110649F044F0C601FA
:100B4000800F911F0E9433050F5F1F4FF2CFCE0120
:100B500001960E94330581E090E0CBCF61E070E028
:100B6000809101280E94CE0288EC9EE20C94BD0385
:100B7000CF93DF931F92CDB7DEB76983DC01ED9190
:100B8000FC910280F381E02D41E050E0BE016F5FF7
:100B90007F4F09950F90DF91CF9108950F9391E0CA
:100BA00090933A2910923929609337297093382904
:100BB00040933629209335291092342910923329F5
:100BC00000933229880F8093312923E030E044E0FC
:100BD00050E080913629882341F020932F293093CB
:100BE0003029809131298E7F0BC08091352988234F
:100BF00051F040932F295093302980913129816001
:100C00008093A70808C080913629811104C0809183
:100C10003529882311F3809139298823E1F38091C4
:100C200039298330B1F280913529882321F08091D0
:100C300033290F91089580913929823031F0853020
:100C400031F0813031F480E0F4CF81E0F2CF83E005
:100C5000F0CF84E0EECFE0EAF8E0918590669187EE
:100C600022E030E020932F293093302980932129EE
:100C700010922029089581E0809320291092212943
:100C800093E09093AA089091AB0891FF10C0109246
:100C90002D29E0911E29F0911F29099580932C2977
:100CA00085E090E080932F29909330290895109249
:100CB0002E2980932B2986E090E0F4CF8F929F928B
:100CC000AF92BF92CF92DF92EF92FF92CF93DF93DA
:100CD00060342DE0720723E08207910508F454C0C8
:100CE000611525E372072CE08207910508F445C0E1
:100CF00060387F448241910508F046C0C8E7D0E0E3
:100D000020E432E44FE050E08090022890900328E5
:100D1000A0900428B0900528C501B4010E94FC2CC5
:100D200069017A018AE0C81AD108E108F108C50111
:100D3000B40120E432E44FE050E00E94FC2CDE01DC
:100D40000E94B82C28EE33E040E050E00E94FC2CDA
:100D5000C21AD30AE40AF50AF694E794D794C79422
:100D6000C092A608DF91CF91FF90EF90DF90CF90D7
:100D7000BF90AF909F908F900895CCE2D1E020E893
:100D80003AE146E050E0C0CFC8EED3E020EA36E8D2
:100D900041E050E0B9CF60931C2970931D2908955C
:100DA00060931A2970931B290895E0911C29F091F2
:100DB0001D29309741F01092192910921829099590
:100DC00080911829089580E00895E0911A29F09102
:100DD0001B29309759F03091172920911629321785
:100DE00028F01092172980931629099408950895E0
:100DF000E091172980911629E81730F4F0E0EA56BF
:100E0000F74D808190E008958FEF9FEF08959091C6
:100E10001729809116292FEF3FEF981748F4E92FF3
:100E2000F0E0EA56F74D208130E09F5F909317295C
:100E3000C90108958091162990911729891B990B52
:100E40000895CF92DF92EF92FF920F931F93CF936B
:100E5000DF937C018A01EB016B01C40ED51ECC151A
:100E6000DD0551F06991D701ED91FC910190F08180
:100E7000E02DC7010995F3CFC801DF91CF911F91F4
:100E80000F91FF90EF90DF90CF9008952091182957
:100E900027FF08C021E030E0FC012283338390E08B
:100EA00080E0089580911929E82FF0E0EA5EF74D7F
:100EB00060838F5F809319298093182981E090E0E7
:100EC0000895DC01ED91FC91008CF18DE02D61E045
:100ED00009940F9380912F29909130290197A1F4C3
:100EE00080913A29811112C0062F20E040911829E3
:100EF00066E178E2809115280E94CE0510921929AA
:100F0000109218290F91089580E0F8CF81E0F6CF74
:100F100060931528109219291092182908950F939B
:100F20001F93CF938C01C62FFC01648185E29FE261
:100F30000E948807F80163856C2B85E29FE20E947E
:100F4000460785E29FE2CF911F910F910C946107B4
:100F5000DC01ED91FC91048CF58DE02D21E00994EC
:100F60000F9386E998E28093222990932329809118
:100F70002F29909130290197C9F480913A29811144
:100F800017C0FA014138510510F0E0E8F0E0022FF7
:100F9000862F2E2F40E070E060E00E94CE05109278
:100FA00017298093162990E00F91089580E0F7CFDC
:100FB00081E0F5CFCB01BA010C945E06E0EAF8E0DF
:100FC0001382168281E085831486118610922F2960
:100FD0001092302908951092172910921629109214
:100FE00019291092182980912F2990913029892B45
:100FF000D9F482E090E080932F29909330291092C9
:101000002E2910922D291092202910922129109218
:10101000142810922B29660F6093AC0881EE809300
:10102000A90881E08093A30885ED96E080931E29AE
:1010300090931F2986E198E2809324299093252993
:1010400085EE96E08093292990932A2986E998E2F3
:10105000809326299093272980E880932829089552
:1010600010921729109216291092192910921829F6
:1010700080912F2990913029892BF1F48091E305FB
:101080008093E30581E090E080932F2990933029AD
:10109000109233291092342910923A29109239294A
:1010A00081EC8093A30860EA76E881E090E00E94FA
:1010B0005E0681E08093A508089590E080E00895A1
:1010C0000F931F93CF93DF93209113282F5F322F1D
:1010D00037703093132820FF2BC020E831FD2064A7
:1010E000347009F02062205FFC01EC01239600E0DF
:1010F00011E06485662329F070E0C8010E94842E07
:101100006F5F6187322F369F030E30E0311D11244F
:10111000311110C01682662311F06150618731963B
:10112000EC17FD0731F7DF91CF911F910F910895D3
:1011300020E0D4CF31503683EECF3F924F925F9272
:101140006F927F928F929F92AF92BF92CF92DF92D7
:10115000EF92FF920F931F93CF93DF932C01EB013C
:101160000E94F802F20127853089621B730B6A30F6
:101170007105B0F3F8948A819B81181619060CF05A
:101180002AC2E881F98131B1316091B19E7F91B974
:10119000E9848E812E2D281B822F2E834F85042ECD
:1011A000000C550BAA81BB816C857D85FE843324A0
:1011B0003394360E7F5FF3949F808884CA84BB8407
:1011C0001081A1B0D12C6D2D0D2D2D2D2081112739
:1011D000889461B02111280F61B008F42FEF819538
:1011E000889461B030FC120F61B01795889431FC7F
:1011F000120F61B0179561B0889461B032FC120F84
:101200001795889461B033FC120F61B017958894DC
:1012100034FC120F61B0179561B0889461B035FC51
:10122000120F1795889461B036FC120F61B01795B4
:10123000889437FC120F61B0179561B0889461B043
:10124000622F3110612F8E0D61B0162F61B0002C0E
:1012500061B031B900C000C061B017FF91B961B091
:1012600021816627889400C0002C91B961B02111BA
:10127000290D00C0002C31B900C000C061B016FFBC
:1012800091B961B008F42FEF9194889400C0002CBC
:1012900091B961B070FD620F00C0002C31B900C07F
:1012A00000C061B015FF91B961B06795889471FD78
:1012B000620F00C0002C91B961B06795889400C09E
:1012C000002C31B900C000C061B014FF91B961B009
:1012D00072FD620F6795889400C0002C91B961B0CF
:1012E00073FD620F00C0002C31B900C000C061B0B6
:1012F00013FF91B961B06795889474FD620F00C0C7
:10130000002C91B961B06795889400C0002C31B968
:1013100000C000C061B012FF91B961B075FD620FED
:101320006795889400C0002C91B961B076FD620F7A
:1013300000C0002C31B900C000C061B011FF91B9EC
:1013400061B06795889477FD620F00C0002C91B959
:1013500061B06795889400C0002C31B900C000C00E
:1013600061B010FF91B961B0122F7111162F9C0C52
:1013700000C0002C91B900C000C0002C31B900C0E1
:1013800000C061B017FF91B961B0228166278894CF
:1013900000C0002C91B961B02111280D00C0002CB3
:1013A00031B900C000C061B016FF91B961B008F456
:1013B0002FEFE40FF51F00C0002C91B961B0F0FCD5
:1013C000620F00C0002C31B900C000C061B015FF31
:1013D00091B961B067958894F1FC620F00C0002C50
:1013E00091B961B06795889400C0002C31B900C0F4
:1013F00000C061B014FF91B961B0F2FC620F679553
:10140000889400C0002C91B961B0F3FC620F00C059
:10141000002C31B900C000C061B013FF91B961B0B8
:1014200067958894F4FC620F00C0002C91B961B0FC
:101430006795889400C0002C31B900C000C061B02D
:1014400012FF91B961B0F5FC620F6795889400C0F6
:10145000002C91B961B0F6FC620F00C0002C31B9CC
:1014600000C000C061B011FF91B961B06795889468
:10147000F7FC620F00C0002C91B961B067958894A9
:1014800000C0002C31B900C000C061B010FF91B99C
:1014900061B0122FF110162F819400C0002C91B969
:1014A00061B08B0C00C000C031B900C000C061B099
:1014B00017FF91B961B020816627889400C0002C85
:1014C00091B961B02111280F00C0002C31B900C0C2
:1014D00000C061B016FF91B961B008F42FEF81959B
:1014E000889400C0002C91B961B030FC620F00C03C
:1014F000002C31B900C000C061B015FF91B961B0D6
:101500006795889431FC620F00C0002C91B961B0DE
:101510006795889400C0002C31B900C000C061B04C
:1015200014FF91B961B032FC620F6795889400C0D6
:10153000002C91B961B033FC620F00C0002C31B9AE
:1015400000C000C061B013FF91B961B06795889485
:1015500034FC620F00C0002C91B961B0679588948B
:1015600000C0002C31B900C000C061B012FF91B9B9
:1015700061B035FC620F6795889400C0002C91B96A
:1015800061B036FC620F00C0002C31B900C000C051
:1015900061B011FF91B961B06795889437FC620F13
:1015A00000C0002C91B961B06795889400C0002CF0
:1015B00031B900C000C061B010FF91B961B0122F05
:1015C0003110162F8E0D00C0002C91B961B011970B
:1015D00009F03FCE61B04A815B8120EE31E0DA0153
:1015E0000E94982EDC01CB01F4E0B695A795979563
:1015F0008795FA95D1F730E020E0B901EAE94E9FEE
:10160000040E611D5E9F600D711D1124650F711D1B
:10161000860F971FA11DB11D893E43E09407A105C8
:10162000B10508F434C0885E9340A109B10942E0D5
:10163000B695A795979587954A95D1F747E0849FEA
:10164000080E211D949F200D311D1124290F311DDD
:101650006091122870E0860F971F820F931F4091B0
:101660003F29509140296091412970914229292FA9
:101670003327420F531F611D711D40933F29509323
:1016800040296093412970934229809312287894CD
:101690000E94F802F2016787708BDF91CF911F9152
:1016A0000F91FF90EF90DF90CF90BF90AF909F9001
:1016B0008F907F906F905F904F903F900895009A29
:1016C00008956F927F928F92CF92DF92EF92FF9266
:1016D0000F931F93CF93DF93CDB7DEB76297CDBF44
:1016E000DEBF6C017A013801822EDC011C962C9140
:1016F000CA0157FF04C088279927841B950B69836B
:101700007A838B839C838D839E836D867E868F8672
:10171000213031F5CE0101960E94600883E0888B6C
:10172000198A1A8AF7FE02C08DEF888BD601ED91D7
:10173000FC910484F585E02DBE016F5F7F4FC601EB
:1017400009956296CDBFDEBFDF91CF911F910F91BA
:10175000FF90EF90DF90CF908F907F906F900895E3
:101760001C861B861A86198618861F82D7CFEF9291
:10177000FF920F931F93CF93DF93CDB7DEB762979E
:10178000CDBFDEBF7C01DC011C968C9169837A831E
:101790004B835C834D835E830D871E872F8781304B
:1017A000E1F4CE0101960E946008188A198A1A8A0B
:1017B000D701ED91FC910484F585E02DBE016F5FAA
:1017C0007F4FC70109956296CDBFDEBFDF91CF91F4
:1017D0001F910F91FF90EF9008951C861B861A862B
:1017E000198618861F82E1CF81E008953F924F92BB
:1017F0005F926F927F928F929F92AF92BF92CF92A1
:10180000DF92EF92FF920F931F93CF93DF938C01A0
:101810000E945703E801C25DDE4F480126EA821AA2
:101820002DEF920A6B017C0134E0F694E794D79493
:10183000C7943A95D1F748EC442E512C612C712C69
:1018400033243A9458ECA52EB12CD701C601992720
:10185000AA27BB278D539E4F880F991F080F191F6A
:101860001992FE01E55DFE4F1082C701B601A3018A
:1018700092010E94FC2CFE01ED52F140693171058C
:101880008105910540F0C6018C599F4FB5010E941A
:10189000702E4997D8F43082BFEFCB1ADB0AEB0ADF
:1018A000FB0AC815D905E1F6DF91CF911F910F9181
:1018B000FF90EF90DF90CF90BF90AF909F908F9070
:1018C0007F906F905F904F903F900895D8018D91D9
:1018D0009C91959587958083DFCF8F929F92AF9251
:1018E000BF92CF92DF92EF92FF920F931F93CF930D
:1018F000DF93CDB7DEB72697CDBFDEBF6C018C017D
:101900000E5F1F4F812C912C5401EE24EA94F12C90
:101910000E945703DC01CB01880D991DAA1DBB1D38
:1019200023E0B695A795979587952A95D1F799279E
:10193000AA27BB278D539E4F880F991FF601E80FEA
:10194000F91F8081918195958795959587959C0143
:1019500021543F4F2D833E83EB82FC82FE012F3FBB
:1019600031050CF45FC0339619821A8220813181CF
:101970001216130614F0FE0131962081F80121930E
:101980008F019C0128573F4F2D833E83EB82FC82C1
:10199000FE012F3F31050CF447C0339619821A829D
:1019A000208131811216130614F0FE013196208138
:1019B000F801E55DFE4F20838A5A9F4F8D839E83F9
:1019C000EB82FC82FE018F3F910584F133961982F0
:1019D0001A82808191811816190614F0FE01319641
:1019E0008081F801E95AFD4F8083FFEF8F1A9F0A2B
:1019F000AF0ABF0A8CE2881681E09806A104B10400
:101A000009F086CF2696CDBFDEBFDF91CF911F9123
:101A10000F91FF90EF90DF90CF90BF90AF909F908D
:101A20008F9008953596A0CF3596B8CF3596CFCF05
:101A30002F923F924F925F926F927F928F929F92DE
:101A4000AF92BF92CF92DF92EF92FF920F931F93CC
:101A5000CF93DF93CDB7DEB76A97CDBFDEBF1C0152
:101A60008B879C871D861E861F86188A19861A8674
:101A70001F8218869C0126573A4F298F3A8F8F81F3
:101A80009885092E000CAA0BBB0B898B9A8BAB8B0C
:101A9000BC8B89859A85092E000CAA0BBB0B8D8BFC
:101AA0009E8BAF8BB88F0B851C85C12CD12C7601FA
:101AB000C801821993098C329140DCF4B5E0CB1651
:101AC000D1040CF44FC0F801E65AFD4F1082EC52DD
:101AD000F1401082F80112820F5F1F4F3FEFC31ACF
:101AE000D30AE30AF30A86E1C816D104E104F1043B
:101AF000F9F6AF81B885A052B445AF83B887E985C0
:101B0000FA85E051FA4AE987FA872B853C852A5EF7
:101B10003F4F2B873C878D859E85AF85B88946963C
:101B2000A11DB11D8D879E87AF87B88BAF81B8850A
:101B3000A034B64609F0A3CF6A96CDBFDEBFDF91D1
:101B4000CF911F910F91FF90EF90DF90CF90BF90BA
:101B5000AF909F908F907F906F905F904F903F904D
:101B60002F9008958D849E84AF84B8888C0C9D1C22
:101B7000AE1CBF1C4D885E886F88788C4C0C5D1C39
:101B80006E1C7F1CA98DBA8D8C91811164C00E943E
:101B90005703B3E09695879577956795BA95D1F7F2
:101BA000860E971EA81EB91E9924AA24BB24BDE345
:101BB0008B1ABEEF9B0A880C991CF101E80DF91DE8
:101BC00080819181959587958058F80182830E9444
:101BD000570336E096958795779567953A95D1F7AF
:101BE000460E571E681E791E552466247724FDE391
:101BF0004F1AFEEF5F0A440C551CF101E40DF51D70
:101C00008081918153E0959587955A95E1F70296E9
:101C10008D839E83D80112962C912E51330B2B83EA
:101C20003C83FE0182179307A4F4359619821A8229
:101C3000808191811816190614F0FE013196808179
:101C4000F801E25DFE4F8083E45DFE4FB1E0B083BA
:101C500043CF3396EBCF0E945703DC01CB01E7E083
:101C6000B695A79597958795EA95D1F749895A89A9
:101C70006B897C894C0D5D1D6E1D7F1D840F951F2A
:101C8000A61FB71F9927AA27BB278D539E4F880FE2
:101C9000991FF101E80FF91F80819181A3E09595CB
:101CA0008795AA95E1F702968D839E83EFEFF0E08A
:101CB000EB83FC83FE018F3F91050CF06BC03596E2
:101CC00019821A82808191811816190614F0FE017A
:101CD00031968081D80112968C930E94570356E06A
:101CE00096958795779567955A95D1F7460E571E25
:101CF000681E791E552466247724BDE34B1ABEEF77
:101D00005B0A440C551CF101E40DF51D80819181A5
:101D100073E0959587957A95E1F702968D839E837A
:101D2000EFEFF0E0EB83FC83FE018F3F9105A4F51C
:101D3000359619821A82808191811816190614F03D
:101D4000FE0131968081F801E25DFE4F80830E94A2
:101D50005703F801E65AFD4F23E09695879577954E
:101D600067952A95D1F7860E971EA81EB91E99244D
:101D7000AA24BB242DE3821A2EEF920A880C991C08
:101D8000D101A80DB91D8D919C9195958795805C89
:101D90008083A2CE339694CF3396CBCF08954F92C3
:101DA0005F926F927F928F929F92AF92BF92CF92EB
:101DB000DF92EF92FF92DC011A96ED91FC91E853CD
:101DC000FD454080812C912C54019394C12CD12C41
:101DD0007601512C712C612CF601E450F34DA301D6
:101DE0009201C701B6010E94602E7083BFEFCB1A2B
:101DF000DB0AEB0AFB0A81E0881A9108A108B10806
:101E000059F7FF90EF90DF90CF90BF90AF909F90E9
:101E10008F907F906F905F904F90089580E008952D
:101E20000F931F93CF93DF938C01EB012A853B85A2
:101E3000C90101974F85442329F168857985860F6B
:101E4000971F0E94842E8A879B878A859B8582178D
:101E5000930751F08E85882339F0E881F98102805B
:101E6000F381E02DCE010995E881F9810190F0819F
:101E7000E02DBE01C8010995C801DF91CF911F91E6
:101E80000F91089597FFDFCF90E080E0DCCFCF93F4
:101E9000DF93EC01FB01128A0E94100FCE01DF914B
:101EA000CF9108950F931F93CF93DF938C01EB0194
:101EB0002A853B85C9010196688579854F8544232C
:101EC00009F10E94842E8A879B878A859B858217C9
:101ED000930751F08E85882339F0E881F9810280DB
:101EE000F381E02DCE010995E881F9810190F0811F
:101EF000E02DBE01C8010995C801DF91CF911F9166
:101F00000F91089561507109861797070CF4BC0171
:101F10006A877B87DACF0F931F93CF93DF938C0170
:101F2000EB018A89882319F18A859B85892BF9F42D
:101F3000888999890097D9F01A8A8A879B878E8524
:101F4000882339F0E881F9810280F381E02DCB010B
:101F50000995E881F9810190F081E02DBE01C80169
:101F60000995C801DF91CF911F910F910895BE018E
:101F7000C8010E94520FF5CF089590E080E00895C7
:101F8000FC018585968508950F931F93CF93DF936A
:101F900000D01F92CDB7DEB7AB0119821A821B8227
:101FA000DC01ED91FC910190F081E02D00E010E06A
:101FB00020E0BE016F5F7F4F09952396CDBFDEBF46
:101FC000DF91CF911F910F910895CF93DF93EC0193
:101FD00088819981009711F00E946A2F18821982D6
:101FE0001C821D821A821B82DF91CF910895FC0111
:101FF00080819181009711F00C946A2F08950C94C0
:102000006A2FCF93DF93EC018091FC2D9091FD2DF1
:10201000009711F00E946A2FEA85FB85EE0FFF1FE3
:10202000E250FD450190F081E02DDF91CF910994C0
:102030000E945703809106280E94D302892BD1F772
:1020400008950F931F93CF938C01C62F0E948F0783
:102050006C2F6460C8010E948F076C2F6B7FC801D2
:102060000E948F0783EC90E00197F1F7CF911F91C9
:102070000F9108950F931F93CF93DF938C01D62F69
:10208000C42F607F642B0E94211080E1D89FB00193
:1020900011246C2BC801DF91CF911F910F910C94EB
:1020A0002110CF93DF93CDB7DEB72897CDBFDEBF2A
:1020B00098E0E4EAF1EADE01119601900D929A951A
:1020C000E1F79091782F961708F46FEF262F30E004
:1020D000220F331F41E050E04C0F5D1F240F351FCE
:1020E000F9016081680F606840E080E79FE2289610
:1020F000CDBFDEBFDF91CF910C943A1040E061E09C
:1021000080E79FE20E943A108BE39FE10197F1F78D
:10211000089541E00E943A1081E090E00895CF9345
:10212000DF93EC018091642F9091652F0097E9F087
:102130006881798161157105B1F04091662F5091E8
:10214000672F2C813D814217530768F00E94BE30F3
:102150008C819D818093682F9093692F1C821D82B2
:10216000DF91CF9108950E946A2F88819981809391
:10217000642F9093652F8A819B818093662F909323
:10218000672F8C819D818093682F9093692F18828F
:1021900019821A821B82E2CF8F929F92AF92BF92D6
:1021A000EF92FF920F931F93CF93DF93CDB7DEB7DC
:1021B000A197CDBFDEBF7C01FA01CB0119A222306D
:1021C00008F42AE08E010F5D1F4F822E912CB12C56
:1021D000A12CBF01A50194010E94FC2CF901CA01A8
:1021E0006A305CF5605DD8016E938D01232B242B42
:1021F000252B79F790E080E0109789F0FD010190A0
:102200000020E9F73197AF014A1B5B0BD701ED9135
:10221000FC910280F381E02DB801C7010995A196D8
:10222000CDBFDEBFDF91CF911F910F91FF90EF9057
:10223000BF90AF909F908F900895695CD4CF8F929C
:102240009F92AF92BF92CF92DF92EF92FF920F9345
:102250001F93CF93DF937C01EB016C0182E0C80EEA
:10226000D11C4701E5E08E0E911C10E000E0F60164
:1022700041916F0150E070E060E02AE0CE010E94E1
:10228000CC105C01E881F9810190F081E02D6EE2D3
:10229000CE0109958A0D9B1D080F191FC814D9047A
:1022A00031F7F701458150E070E060E02AE0CE01AF
:1022B0000E94CC10800F911FDF91CF911F910F9141
:1022C000FF90EF90DF90CF90BF90AF909F908F9056
:1022D00008950F931F93CF93DF93EC018881998129
:1022E000009759F02A813B812617370730F081E0AB
:1022F000DF91CF911F910F9108958B016F5F7F4FF9
:102300000E94F32F009759F0888399830A831B83D7
:102310002C813D81232B59F7FC011082E8CF80E00E
:10232000E7CFEF92FF920F931F93CF93DF93611547
:10233000710541F480E0DF91CF911F910F91FF90E3
:10234000EF90089541155105B1F07B01EC010C812E
:102350001D81040F151FB8010E946911882351F3D4
:10236000288139818C819D81B701820F931F0E9442
:10237000BE300C831D8381E0DECFEF92FF920F937E
:102380001F93CF93DF93EC017B018A01BA010E9476
:10239000691181110BC0CE010E94E50FCE01DF91C2
:1023A000CF911F910F91FF90EF9008950C831D83A3
:1023B000B701888199810E94BE30F0CFFB01019066
:1023C0000020E9F73197AF01461B570B0C94BD1164
:1023D000CF93DF93EC01FB018617970749F06081EB
:1023E00071816115710541F0448155810E94BD11D3
:1023F000CE01DF91CF9108950E94E50FF9CFFC0146
:102400001082118212821382148215820C94E811B8
:10241000CF93DF93EC01FB018285938526E0289F13
:10242000B001299F700D1124625F7D4CCE010E9486
:10243000FF11CE01DF91CF910895CF93DF93EC018F
:10244000FB018285938526E0289FB001299F700DAE
:102450001124605E7D4CCE010E94FF11CE01DF9100
:10246000CF910895FC01108211821282138214828E
:102470001582FB0101900020E9F73197AF01461B5F
:10248000570B0C94BD11DF92EF92FF920F931F93A5
:10249000CF93DF93CDB7DEB76297CDBFDEBF80931A
:1024A000FE2D9093FF2D880F991FFC01E058FC45ED
:1024B000E080F18060E874EACE0101960E94321259
:1024C000F7010681178167E874EACE0107960E943A
:1024D00032128D819E81009709F1980136952795DA
:1024E00008E010E0021B130B8017910708F48C0121
:1024F000E981FA81E00FF11FD080108269817A8131
:10250000CE0107966115710509F442C00E94DE11E3
:1025100089819A81080F191FF801D082BE01695F75
:102520007F4FCE010D960E94FF11F7014681578122
:1025300062817381CE010D960E949111811104C0B8
:10254000CE010D960E94E50FBE01635F7F4F8AE6C4
:102550009FE20E94E811CE010D960E94F70FCE0176
:1025600007960E94F70FCE0101960E94F70F67E8C9
:1025700074EA84E69FE20E94DE116296CDBFDEBF60
:10258000DF91CF911F910F91FF90EF90DF90089511
:102590000E94E50FBDCF8091FE2D9091FF2D0196F9
:1025A00063E070E00E94842E0C944312CF92DF927D
:1025B000EF92FF920F931F93CF93DF93CDB7DEB7C8
:1025C0002697CDBFDEBF8091DD310E94D3028C0102
:1025D0008091DF310E94D302E091E331F091E43148
:1025E000EF70FF27000F111F082BEE0FFF1FEE0FDC
:1025F000FF1FE452FE4CE00FF11D1585812F90E086
:102600008093E3319093E431107351F0C12ED12CBB
:102610008091DC31882301F1103171F40E94CB12DA
:102620002696CDBFDEBFDF91CF911F910F91FF9016
:10263000EF90DF90CF90089580E2C816D10481F723
:102640008091FE2D9091FF2D029663E070E00E9434
:10265000842E0E944312E4CFE091FE2DF091FF2DD5
:10266000EE0FFF1FE058FC45E080F180B7016E5F80
:102670007F4FCE0101960E94FF1141E050E068E8D3
:1026800074EACE0101960E949111811104C0CE011D
:1026900001960E94E50FBE016F5F7F4F8AE69FE2C1
:1026A0000E94E811CE0101960E94F70F103199F4B3
:1026B000D701ED91FC910680F781E02DB701CE01A5
:1026C00001960995CE0101960E948F10CE010196C8
:1026D0000E94F70FA5CFB0E2CB16D10409F0A0CF2E
:1026E000D701ED91FC910084F185E02DE7CF0E94A8
:1026F000B030CF92DF92EF92FF920F93FC01C12C8A
:10270000B9E0DB2EBDE3EB2EF12CC082D182E28258
:10271000F3821482158281E090E086839783C090D3
:102720000228D0900328E0900428F0900528F69421
:10273000E794D794C79490E04C155D056E057F052E
:1027400040F4F694E794D794C7949F5F9630A1F72E
:1027500097E004600187892F8095A82FA170B0E0D1
:1027600084E0AA0FBB1F8A95E1F791629A2B80E063
:10277000232B09F480E4982B90870F91FF90EF9022
:10278000DF90CF9008950F931F93CF93DF93CDB732
:10279000DEB72A97CDBFDEBF8C01FC018781811196
:1027A0000CC010861186128613861486158616862E
:1027B0001786108A118A81E087838091E305F801EA
:1027C0009681892B8093E30561E070E083810E940C
:1027D0005C0261E070E0F80184810E945C028091FB
:1027E000C10884608093C1088091C0088162809391
:1027F000C00840910A2F50910B2F60910C2F7091BF
:102800000D2F00910E2F2091102F3091112FCE01FE
:1028100001960E94791399858A859093C0088093C8
:10282000C1082A96CDBFDEBFDF91CF911F910F91D6
:102830000895CF9383E28093012884E28093062851
:10284000C1E0C0933C298DE18093002861E070E0F5
:1028500083E20E94260270E060E084E20E945C0253
:1028600061E070E08DE10E945C0261E070E08CE16B
:102870000E94260261E070E08CE10E948B0261E020
:1028800070E083E20E94CE0261E070E08DE10E9480
:10289000CE026AE070E080E090E00E94270370E0E2
:1028A00060E08DE10E94CE026EEE72E080E090E08A
:1028B0000E94270370E060E08CE10E948B0270E0D0
:1028C00060E08CE10E94260288EC9EE20E94C31325
:1028D000C0933B29CF9108955F926F927F928F9220
:1028E0009F92AF92BF92CF92DF92EF92FF920F939F
:1028F0001F93CF93DF93CDB7DEB76297CDBFDEBF17
:102900003C010B871C872D873E87042F4F87588BF0
:10291000698B7A8B29893A894B855C856D857E85A3
:10292000CE0101960E94791359841A85D301189615
:102930008C91882319F081FF18C0F8945092C00838
:102940001093C1086296CDBFDEBFDF91CF911F917A
:102950000F91FF90EF90DF90CF90BF90AF909F903E
:102960008F907F906F905F90089580FFE7CFF30185
:1029700082849384A484B584C12CD12C7601B0E0E8
:102980009401A501B601C701A0E00E94BC2EA9F1E7
:10299000217030E040E050E060E070E080E090E0E6
:1029A0000E94BC2EE9F090E080E0B03370F48B2FF1
:1029B000869586958695F0E28F9FC0011124805FF1
:1029C0009B4F2B2F2770820F911DFC01408193019B
:1029D0002B0F311DF901428BFC012081287F2083C0
:1029E0009401A501B601C70101E00E94A12E490191
:1029F0005A016B017C01BF5FC3CFD3011E968D903E
:102A00009D90AD90BC905197C12CD12C7601B0E235
:102A10009401A501B601C701A0E00E94BC2E09F4F3
:102A20008DCF217030E040E050E060E070E080E069
:102A300090E00E94BC2EE9F090E080E0B03370F4AA
:102A40008B2F869586958695E0E28E9FC001112496
:102A5000805F9B4F2B2F2770820F911DFC014081BF
:102A600093012B0F311DF901428BFC012081287F3E
:102A700020839401A501B601C70101E00E94A12EA7
:102A800049015A016B017C01BF5FC2CFCF92DF9237
:102A9000EF92FF920F931F93CF93DF93CDB7DEB7E3
:102AA0002897CDBFDEBF80E0082F1D821E8281E007
:102AB000682F12E12AE730E040E05E8170E088ECA8
:102AC0009EE20E946C1470E060E0809101280E94F8
:102AD000CE020E9457036B017C01809106280E9460
:102AE000D302019759F00E9457036C197D098E0992
:102AF0009F09653071058105910578F32896CDBF52
:102B0000DEBFDF91CF911F910F91FF90EF90DF908B
:102B1000CF900895AF92BF92CF92DF92EF92FF9243
:102B20000F931F93CF93DF9300D000D0CDB7DEB7C4
:102B30006C015B018A01452BB1F481E090E0F60164
:102B400082839383F12CE12CC7012496CDBFDEBF95
:102B5000DF91CF911F910F91FF90EF90DF90CF9079
:102B6000BF90AF900895FC01F48080913B298111C2
:102B700002C00E9419140E9418100E94461580EE8F
:102B80000E940D0584E40E940D0582E00E940D055F
:102B900080E00E940D0581E00E940D058F2D0E94AE
:102BA0000D05812F0E940D05802F0E940D057501D6
:102BB000A00EB11EAE14BF0431F0F70181917F0168
:102BC0000E940D05F7CF8EEE0E940D05075F1F4F87
:102BD000C80183709927892B29F00E943D050F5F5A
:102BE0001F4FF6CF0E94AE050E9418100E94461596
:102BF00019821A821B820E944C05892B31F1CE0169
:102C000003960E9433058B81843CF9F40E943D05B4
:102C10008823B9F08FEF0E940D059E012F5F3F4F73
:102C200059018901E82EF12CC8018A199B098E15DA
:102C30009F053CF48FEF0E940D05F80181938F01F1
:102C4000F3CFCE0103960E9433050E94AE05E980C2
:102C5000FA80E114F10409F470CFF60184818C83C9
:102C60001B82198210E000E080913B29811102C093
:102C70000E9419140E9418100E94461580EE0E94AE
:102C80000D058AE20E940D0581E00E940D0561E0BC
:102C9000CE0104960E941B050E943D050E943D0541
:102CA0000E94AE050E9418100E944615AE014F5FAB
:102CB0005F4FBE016D5F7F4F8AE20E9464050E94F4
:102CC000AE058B81811113C00F5F1F4F64E670E06A
:102CD00080E090E00E9427038B81811103C00931BD
:102CE000110510F20931110509F427CF2DCF10E09D
:102CF00000E0F2CFFF920F931F93CF93DF9300D0AA
:102D000000D0CDB7DEB78C0180913B29811102C084
:102D10000E9419140E9418100E94461580EE0E940D
:102D20000D058FE30E940D0580E00E940D058EEEDB
:102D30000E940D050E94AE050E9418100E944615C3
:102D40008FEF8A831982AE014F5F5F4FBE016E5FC6
:102D50007F4F8FE30E9464050E94AE058A81F801CF
:102D600084838F3F09F43FC0F58016818C831982DC
:102D700080913B29811102C00E9419140E941810F1
:102D80000E94461580EE0E940D0588E20E940D0506
:102D900083E00E940D0582E00E940D05812F0E94B4
:102DA0000D058F2D0E940D0560E0CE0104960E9456
:102DB0001B0561E0CE0101960E941B050E943D05A6
:102DC0000E94AE050E9418100E9446151B821A82AE
:102DD000AE014E5F5F4FBE016D5F7F4F88E20E9484
:102DE00064050E94AE052496CDBFDEBFDF91CF9172
:102DF0001F910F91FF900895CF93DF93EC016A85A7
:102E000090E080E00E94852C8A859B85009729F0C0
:102E1000888B998BDF91CF91089581E08A8BFACFCF
:102E2000FC01628581E090E00C94852C4F925F92CA
:102E30006F927F928F929F92AF92BF92CF92DF92CA
:102E4000EF92FF920F931F93CF93DF93EC017B01DF
:102E5000FC01E257F94F8081918101968083918333
:102E60000E94F52A23E030E040E050E00E94992CD7
:102E70008B016FEF70E00115110541F00E94F52AFA
:102E80002FEF30E040E050E00E94992CEE0CFF1C48
:102E9000CE0DDF1DFE01E657FA4F608371836FEFA1
:102EA00070E00130110541F00E94F52A2FEF30E06B
:102EB00040E050E00E94992CFE01EE54FA4F6083EE
:102EC00071836FEF70E00230110541F00E94F52A26
:102ED0002FEF30E040E050E00E94992CFE01E652D6
:102EE000FA4F608371830E94F52A4B015C010E94B6
:102EF000F52A2B013C0132E0C32ED12CE12CF12C20
:102F0000C501B401A70196010E94992C4B01C30190
:102F1000B201A70196010E94992C8401060F171F88
:102F20000E94F52AA70196010E94992C0F5F1F4F5E
:102F3000060F171F0E94F52A7801023011051CF4B4
:102F400022E0E22EF12C22E030E040E050E00E944E
:102F5000992CDE01AE5FB94FFE01E65DF94FCE5A06
:102F6000D94F672B682B692B01F511950195110934
:102F70000D931C938CE291E08083918384EDE81A99
:102F80008EEFF80AE882F982DF91CF911F910F91BD
:102F9000FF90EF90DF90CF90BF90AF909F908F9079
:102FA0007F906F905F904F9008950D931C93F194D4
:102FB000E194F108E082F18218821982E5CF2F9224
:102FC0003F924F925F926F927F928F929F92AF92B9
:102FD000BF92CF92DF92EF92FF920F931F93CF9306
:102FE000DF93CDB7DEB72997CDBFDEBF8C01AC0133
:102FF0004E5F5F4FDC01A25DBE4FBC01665A7D4F44
:103000009D01FA0180818451990B97FD80E0FA01BE
:103010008193AF018C918451990B97FD80E08D9342
:10302000FB0180818451990B97FD80E0FB01819326
:10303000BF014217530729F77801F6E8EF1AF9EFB5
:10304000FF0A680122E7C21A29EFD20AF70111929A
:10305000EC15FD05E1F7C80186529A4F8F839887DA
:10306000B12CA12CAF81B88598968D919C919997A0
:10307000892B09F4BEC02D01B0E54B0E511CF201A5
:10308000808191812F803884F8E72F0E311CD10187
:103090008D909C90F801E80FF91F2F8138852852F8
:1030A00031092B833C83AF81B885A055B109AD832D
:1030B000BE83881599050CF055C08C32B1E09B0792
:1030C000C0F5AF81B8852D913C91AB81BC814D910C
:1030D0005C91AD81BE816D917C91D701BC91B98726
:1030E000DF01A25DBE4FA983BA83A45DBE4F3D013F
:1030F000B985BB2309F1A281B0E0A617B7070CF48C
:10310000DB01A283A981BA816C9170E06417750715
:103110000CF4BA01A981BA816C93D3014C9150E0AF
:10312000421753070CF4A901D3014C9321E0D701B6
:103130002C9301963196BDCF6F3F710514F06FEF60
:1031400070E062834F3F510514F04FEF50E0A981CA
:10315000BA814C932F3F310514F02FEF30E0D301AB
:103160002C93E4CFAF81B88598962D913C91F201D4
:1031700080819181820F931F80839183280D391D57
:10318000D1012D933C9337FD03C08C3291405CF00C
:10319000EF81F88510A611A6D6018D919C9111970B
:1031A00001978D939C932FEFA21AB20A3FEFE31A77
:1031B000F30A8F81988502968F83988794E1A916E8
:1031C000B10409F04FCF2996CDBFDEBFDF91CF917B
:1031D0001F910F91FF90EF90DF90CF90BF90AF9035
:1031E0009F908F907F906F905F904F903F902F9027
:1031F0000895F601608071806114710429F4B501AD
:10320000C8010E941617CFCF0E94570325E096955C
:103210008795779567952A95D1F7772788279927F6
:103220006D537E4F660F771FF801E60FF71F808002
:103230009180880C991C880C991CF2E3F69D9001F2
:10324000F79D300D1124245D3E4F820E931E811494
:103250009104A9F20E94F52A9401990C440B550B94
:103260000E94992C672B682B692B09F09CCFC7CF44
:103270004F925F926F927F928F929F92AF92BF9286
:10328000CF92DF92EF92FF920F931F93CF93DF9332
:10329000CDB7DEB72697CDBFDEBF8C010E94F52AE1
:1032A0002CE231E040E050E00E94992C6B016D83EC
:1032B0007E830E94F52A2B013C010E94F52A698336
:1032C0007A838B839C832AE0822E912CA12CB12CB3
:1032D000C301B201A50194010E94992C2B016981BF
:1032E0007A818B819C81A50194010E94992C460EC4
:1032F000571E8FEF481A580A8D819E8163E070E057
:103300000E94842E5C0166246A94712CA114B1047D
:1033100081F00E94F52A2FEF30E040E050E00E945B
:10332000992C3B0188248A94912C91E0A916B10430
:1033300079F00E94F52A2FEF30E040E050E00E9443
:10334000992C4B012FEF30E082E0A816B10449F030
:103350000E94F52A2FEF30E040E050E00E94992CC7
:103360009B018D819E81480E591EC414D504A4F57D
:10337000C6016CE271E00E94842EF801E80FF91F8B
:103380008281860D972D911D8F3F910514F08FEF4F
:1033900090E08283DF01A25DBE4F8C91880D992D54
:1033A000911D8F3F910514F08FEF90E0DF01A25D3A
:1033B000BE4F8C93A45DBE4F8C91820F932F911DB5
:1033C0008F3F910514F08FEF90E0E65AFD4F808318
:1033D0009FEFC91AD90AC9CF2696CDBFDEBFDF91AC
:1033E000CF911F910F91FF90EF90DF90CF90BF9002
:1033F000AF909F908F907F906F905F904F900895C7
:103400002F923F924F925F926F927F928F929F92F4
:10341000AF92BF92CF92DF92EF92FF920F931F93E2
:10342000CF93DF938C010E94F52A29E130E040E040
:1034300050E00E94992C672B682B692B19F4C80166
:103440000E943819E801780182EDE81A8EEFF80A37
:10345000065A1D4F712C612C83E0282E312C412CF3
:10346000512CAA80EBE26E16E1E07E0609F458C00A
:103470008B81A81ABB08F70180808181881A99087E
:10348000F801C0808181C81ADD081A141B040CF0F1
:10349000A1C00E94F52A9501BB0C440B550B0E945C
:1034A000992C633071058105910534F08A81815032
:1034B0008A838B818F5F8B83181419040CF0A6C04C
:1034C000092C000CAA08BB080E94F52AA50194014A
:1034D0000E94992C65307105810591053CF0F7013A
:1034E00080818150808381818F5F81831C141D04C2
:1034F0000CF0A9C04601DD0CAA08BB080E94F52A01
:10350000A50194010E94992C6430710581059105F3
:103510003CF0F80180818150808381818F5F8183BD
:103520008A81882379F00E94F52A24E030E040E087
:1035300050E00E94992C672B682B692B19F48A8123
:1035400081508A83F7018081882381F00E94F52AC7
:1035500022E030E040E050E00E94992C672B682B7D
:10356000692B21F4F701808181508083F8018081EB
:10357000882371F00E94F52AA20191010E94992CE2
:10358000672B682B692B21F4F8018081815080839F
:10359000FFEF6F1A7F0A21968FEFE81AF80A0F5F84
:1035A0001F4FECE26E16E1E07E0609F05ACFDF9184
:1035B000CF911F910F91FF90EF90DF90CF90BF9030
:1035C000AF909F908F907F906F905F904F903F90C3
:1035D0002F900895A114B10409F46ECF0E94F52A2A
:1035E000222733272A193B09032E000C440B550BC5
:1035F0000E94992C63307105810591050CF45CCF14
:103600008A818F5F8A838B81815055CF8114910489
:1036100009F46CCF0E94F52A22273327281939098B
:10362000032E000C440B550B0E94992C653071053C
:10363000810591050CF45ACFF70180818F5F80835B
:103640008181815052CFC114D10409F469CF0E9405
:10365000F52A222733272C193D09032E000C440B91
:10366000550B0E94992C64307105810591050CF46D
:1036700057CFF80180818F5F8083818181504FCF48
:103680004F925F926F927F929F92AF92BF92CF9232
:10369000DF92EF92FF920F931F93CF93DF938C01F2
:1036A0000E945703AB01BC01E3E0769567955795FF
:1036B0004795EA95D1F7FA01EE0FFF1FEF01DD27DD
:1036C000CD53DE4FCC0FDD1FC00FD11FDA01BB275A
:1036D000AD53BE4FAA0FBB1FA00FB11F0990D881D9
:1036E000C02D2D913C91C20FD31FE40FF51FFF2772
:1036F000ED53FE4FEE0FFF1FE00FF11F20813181D0
:10370000C20FD31F25E0249FF001259FF00D112447
:10371000FF27ED53FE4FEE0FFF1FE00FF11F20813B
:103720003181C20FD31F27E0249FF001259FF00DA8
:103730001124FF27ED53FE4FEE0FFF1FE00FF11F87
:1037400020813181C20FD31F2BE0249FF001259FE0
:10375000F00D1124FF27ED53FE4FEE0FFF1FE00F7A
:10376000F11F20813181C20FD31F2DE0249FF00172
:10377000259FF00D1124FF27ED53FE4FEE0FFF1F85
:10378000E00FF11F20813181C20FD31F21E1249F5F
:10379000F001259FF00D1124FF27ED53FE4FEE0F92
:1037A000FF1FE00FF11F80819181C80FD91FB3E087
:1037B000D595C795BA95E1F7CF3FD10519F014F02B
:1037C000C0E0D1E0680186E7C81A8AEFD80A78011C
:1037D000E2EDEE1AEEEFFE0A065A1D4F4AE0442EC5
:1037E000512C612C712C5CE3A52EB12C99249A9458
:1037F0000E94F52AA30192010E94992C672B682B45
:10380000692B41F4C038D1057CF10E94F52AF601FC
:10381000A082B182F701EC52F1409082F701208141
:10382000F601819191916F01821B91099595879580
:1038300095958795820FF70181937F01E55DFE4F96
:1038400010820E151F05A1F6DF91CF911F910F91E8
:10385000FF90EF90DF90CF90BF90AF909F907F90C0
:103860006F905F904F9008950E94F52AF6011082A4
:103870001182D0CFEF92FF920F931F93CF93DF93DC
:10388000EC0188ED92EA88839983FE01EA57FA4FAA
:1038900085EF9FEFAFE7BFE380839183A283B3837C
:1038A0007E018AE7E81A8CEFF80A10E000E0B80120
:1038B000012E000C880B990B0E94842B2BED3FE00E
:1038C00049EC50E40E94BF2B20E030E040E85BE38D
:1038D0000E94BF2B0E94D02D20E030E04FEF52E439
:1038E0000E94BF2B20E030E04FEF52E40E942E2DCB
:1038F0000E949A2DF701619371937F010F5F1F4F13
:103900000115F1E01F0799F6FE013296C25DDE4F08
:103910001192DF01A55DBE4F1C92A45DBE4F1C92AB
:10392000EC17FD07A9F7DF91CF911F910F91FF9041
:10393000EF900895CF93DF938AE895E00E94CE2E12
:10394000EC010E943A1C8CEF92EA88839983C09321
:10395000FC2DD093FD2DDF91CF910895CF93DF9370
:103960008BE895E00E94CE2EEC010E943A1C86EF77
:1039700092EA88839983FE01E657FA4F81E08083BB
:10398000C093FC2DD093FD2DDF91CF910895CF935F
:10399000DF938BE895E00E94CE2EEC010E943A1C4A
:1039A00086EF92EA88839983FE01E657FA4F1082E8
:1039B000C093FC2DD093FD2DDF91CF910895CF932F
:1039C000DF938AE895E00E94CE2EEC010E943A1C1B
:1039D00080EF92EA88839983C093FC2DD093FD2DCC
:1039E000DF91CF9108950F931F93CF93DF938AE8D0
:1039F00095E00E94CE2EEC010E943A1C8AEE92EADB
:103A0000888399830AE010E0CE010E9438190150A2
:103A10001109D1F7C093FC2DD093FD2DDF91CF91EB
:103A20001F910F910895CF93DF9382EE97E00E944C
:103A3000CE2EEC010E943A1C84EE92EA8883998390
:103A4000C093FC2DD093FD2DDF91CF9108954F921F
:103A50005F926F927F928F929F92AF92BF92CF921E
:103A6000DF92EF92FF920F931F93CF93DF9380E942
:103A700096E00E94CE2EEC010E943A1C8EED92EA56
:103A800088839983FE01E257F94F108211827E01EB
:103A900086E7E81A8AEFF80A4E01E6E88E1AE9EF9F
:103AA0009E0A6E01F6E2CF1AFAEFDF0A5E0186ED9A
:103AB000A81A89EFB80A10E000E083E0482E512CE4
:103AC000612C712CF701119211927F0116A217A29D
:103AD000F601119211926F0116A217A2F50111922F
:103AE00011925F0116A217A2F40111924F010E94D8
:103AF000F52AA30192010E94992C672B682B692B50
:103B000021F4B801CE010E9416170F5F1F4F043138
:103B10001105C1F6C093FC2DD093FD2DDF91CF91FF
:103B20001F910F91FF90EF90DF90CF90BF90AF90DB
:103B30009F908F907F906F905F904F9008950F931C
:103B40001F93CF93DF93CDB7DEB76897CDBFDEBFAE
:103B50008C01FB0182859385181619060CF03FC075
:103B60001B8A1C8A1D8A1E8A1F8A188E4AE0BE0183
:103B70006F5F7F4F0E944D2BBE016F5F7F4FCE0165
:103B800043960E94DE11BE016D5E7F4FCE0101960D
:103B90000E94FF1143E050E06AE874EACE0101960A
:103BA0000E949111811104C0CE0101960E94E50F7F
:103BB000BE016F5F7F4FC8010E94FF11CE010196C9
:103BC0000E94F70FCE0143960E94F70FC801689636
:103BD000CDBFDEBFDF91CF911F910F9108956EE8A9
:103BE00074EAC8010E943212F1CF1F920F920FB6F1
:103BF0000F9211242F933F934F935F936F937F9373
:103C00008F939F93AF93BF93EF93FF9385E00E94B1
:103C1000ED01FF91EF91BF91AF919F918F917F91B6
:103C20006F915F914F913F912F910F900FBE0F9029
:103C30001F9018951F920F920FB60F9211242F9379
:103C40003F934F935F936F937F938F939F93AF9324
:103C5000BF93EF93FF9384E00E94ED01FF91EF91FA
:103C6000BF91AF919F918F917F916F915F914F9194
:103C70003F912F910F900FBE0F901F9018951F929C
:103C80000F920FB60F9211242F933F934F935F9390
:103C90006F937F938F939F93AF93BF93EF93FF9314
:103CA00083E00E94ED01FF91EF91BF91AF919F9151
:103CB0008F917F916F915F914F913F912F910F90D5
:103CC0000FBE0F901F9018951F920F920FB60F9274
:103CD00011242F933F934F935F936F937F938F9311
:103CE0009F93AF93BF93EF93FF9382E00E94ED0108
:103CF000FF91EF91BF91AF919F918F917F916F91C4
:103D00005F914F913F912F910F900FBE0F901F9099
:103D100018951F920F920FB60F9211242F933F9375
:103D20004F935F936F937F938F939F93AF93BF93C3
:103D3000EF93FF9381E00E94ED01FF91EF91BF911E
:103D4000AF919F918F917F916F915F914F913F9133
:103D50002F910F900FBE0F901F9018951F920F92EA
:103D60000FB60F9211242F933F934F935F936F934E
:103D70007F938F939F93AF93BF93EF93FF9380E0D5
:103D80000E94ED01FF91EF91BF91AF919F918F91B3
:103D90007F916F915F914F913F912F910F900FBE47
:103DA0000F901F9018951F920F920FB60F9211242B
:103DB0002F933F934F935F936F937F938F939F9333
:103DC000AF93BF9340913F29509140296091412981
:103DD0007091422980913D2990913E292091492955
:103DE00030914A29420F531F611D711D20914729AF
:103DF00030914829820F931F883E23E0920730F0CC
:103E0000885E93404F5F5F4F6F4F7F4F80933D2998
:103E100090933E2940933F29509340296093412934
:103E2000709342298091432990914429A09145297A
:103E3000B09146290196A11DB11D8093432990930D
:103E40004429A0934529B093462981E08093B60A7E
:103E5000BF91AF919F918F917F916F915F914F91A2
:103E60003F912F910F900FBE0F901F9018951F92AA
:103E70000F920FB60F9211242F933F934F935F939E
:103E80006F937F938F939F93AF93BF93CF93EF9352
:103E9000FF93C091AB08C2FF0AC010922E29109266
:103EA0002D2910922C2984E00E942B0614C0C6FFF5
:103EB0002FC080912B29813051F480912E29E091DF
:103EC0002929F0912A2990E0099510922B29C0FF09
:103ED00014C00E943B06FF91EF91CF91BF91AF912B
:103EE0009F918F917F916F915F914F913F912F9112
:103EF0000F900FBE0F901F90189580E48093AB0831
:103F000081E00E942B068091AB0885FFE4CFE1CFD2
:103F1000C7FF5CC0C3FF08C010922E2910922D2944
:103F200010922C2983E0C0CF8091A90880668093ED
:103F3000A9088091AB0881FF2CC080912D2988238E
:103F400049F08091AB0884FF05C082E08093AA0805
:103F500081E0AACF90912D2980912C299817A8F45F
:103F6000E0912D298091242990912529E80FF92F9E
:103F7000F11D80818093AD0880912D298F5F809302
:103F80002D2983E08093AA08A6CF82E08093AA0817
:103F90008BCF90912E2980912829981790F48091A9
:103FA000AD08E0912E292091262930912729E20F92
:103FB000F32FF11D808380912E298F5F80932E290E
:103FC000E0CF86E08093AA0882E06ECF85E06CCFD8
:103FD0001F920F920FB60F9211242F933F938F933E
:103FE0009F93EF93FF938091A508982F9C70E1F029
:103FF0008091A50894E082FF93E090933929809303
:10400000A50881E090E080932F29909330291092A9
:104010003A29FF91EF919F918F913F912F910F90AE
:104020000FBE0F901F90189586FF4EC02091362925
:10403000909135298091A50884FF15C0809132297F
:10404000882379F083E08093A40885E08093392960
:1040500010923A2981E090E080932F2990933029A3
:10406000D8CF81E0F0CF80913429821790F4E0918D
:1040700034298091372990913829E80FF92FF11DC3
:1040800080818093A808809134298F5F80933429A0
:10409000C0CF80913329891760F484E090E0809349
:1040A0002F29909330298091312981608093A7082E
:1040B000B0CF80913229882329F083E08093A4082F
:1040C00081E0C4CF81E0FACF87FF40C090913329CF
:1040D000809135299817D8F48091A808E091332968
:1040E0002091222930912329E20FF32FF11D8083A3
:1040F000809133298F5F8093332990913529809166
:1041000033298917D8F482E08093A40882CF809164
:104110003229882389F087E08093A40882E0809385
:10412000392910923A2981E090E080932F299093C9
:104130003029109235296DCF85E0EECF809132295C
:10414000882311F087E0BACF85E0B8CF86E07ECF34
:104150000F931F93CF93DF93C0E6D4EAC093312F20
:10416000D093322F83E39FE20E94F70FC093412F39
:10417000D093422F83E49FE20E94F70FC093512F08
:10418000D093522F83E59FE20E94F70F84E69FE2CF
:104190000E94F70F8AE69FE20E94F70F8AE192E3FE
:1041A0000E94F70F84E192E30E94F70F8EE092E302
:1041B0000E94F70FCAE4D2E32697CE010E94F70FC0
:1041C00082E3C032D807C1F7CAE4D2E306E812E3BB
:1041D00088819981009741F00E946A2F1A821B8280
:1041E000188219821C821D8226960C171D0781F7E2
:1041F000DF91CF911F910F9108952F923F924F928F
:104200005F926F927F928F929F92AF92BF92CF9266
:10421000DF92EF92FF920F931F93CF93DF9380E093
:1042200099E0ADE3B0E080930A2F90930B2FA09319
:104230000C2FB0930D2F10920E2F10920F2FEE24F3
:10424000E394F12CE092102FF092112F8CED93EA71
:104250008093C82E9093C92E1092CF2E21E02093E8
:10426000CE2E81E28093CA2E82E28093CC2E80E211
:104270008093CB2E86E18093CD2EEAE4F2E38CE3AB
:10428000DF011D928A95E9F780E593ECA0E0B0E0AC
:104290008093122F9093132FA093142FB093152F68
:1042A0001092162F1092172FCFEFC093182F109245
:1042B000192F10921A2F1092232F1092242F8FEF64
:1042C0009FEFDC0180931F2F9093202FA093212F2D
:1042D000B093222F1092272F1092282F88EE93E070
:1042E000A0E0B0E08093292F90932A2FA0932B2F4A
:1042F000B0932C2F8AEF93EA8093252F9093262F4B
:1043000062E974EA80E292E30E9432126FE974EA91
:1043100086E292E30E94321264EA74EA8CE292E34B
:104320000E9432126EEA74EA82E392E30E94321231
:1043300065EB74EA88E392E30E94321264EC74EA5B
:104340008EE392E30E94321264ED74EA84E492E315
:104350000E9432126AED74EA8EE092E30E943212F9
:1043600066EE74EA84E192E30E94321261EF74EA2D
:104370008AE192E30E9432121092073210920832C0
:104380008EE294EA8093053290930632C09309320C
:1043900080E590E080930A3290930B321092DC31EA
:1043A0001092E3311092E4311092E5311092E6312F
:1043B0001092E7311092E8318CE1ECEAF1EAA9EED3
:1043C000B1E301900D928A95E1F79DE0C92ED12CC1
:1043D000C092DD31D092DE318CE090E08093DF310D
:1043E0009093E0312BE0A22EB12CA092E131B0925B
:1043F000E23162E070E00E945C0262E070E0809175
:10440000DD310E945C0262E070E08091E1310E9447
:104410005C0261E070E08AE00E945C0261E070E0B2
:1044200089E00E945C0261E070E08AE00E94CE02B6
:1044300070E060E089E00E94CE021092722F10922C
:10444000732F82E294EA8093702F9093712F1092D1
:104450007C2F10927D2F84EF91E080937E2F90939C
:104460007F2FC0E8DFE228E0FE01322F11923A955B
:10447000E9F738E8832E3FE2932EE8ECF1EAD40125
:10448000822F01900D928A95E1F740E9642E4FE268
:10449000742EE0EDF1EAD301822F01900D928A95FE
:1044A000E1F758E9452E5FE2552EE8EDF1EAD20139
:1044B000822F01900D928A95E1F760EA262E6FE235
:1044C000362EE0EEF1EAD101822F01900D928A950D
:1044D000E1F7E8EEF1EAA8EABFE2822F01900D923F
:1044E0008A95E1F7E0EFF1EAA0EBBFE2822F0190BD
:1044F0000D928A95E1F7E8EFF1EAA8EBBFE2822F8F
:1045000001900D928A95E1F7E0E0F2EAA0ECBFE2BB
:10451000822F01900D928A95E1F7E8E0F2EAA8EC8B
:10452000BFE2822F01900D928A95E1F7E0E1F2EA75
:10453000A0EDBFE2822F01900D928A95E1F7E8E1AC
:10454000F2EAA8EDBFE2822F01900D928A95E1F781
:10455000E0E2F2EAA0EEBFE2822F01900D928A958E
:10456000E1F7E8E2F2EAA8EEBFE2822F01900D92B5
:104570008A95E1F7E0E3F2EAA0EFBFE2822F019033
:104580000D928A95E1F768EF7FE2E8E3F2EADB015A
:10459000822F01900D928A95E1F7E0E4F2EAA0E023
:1045A000B0E3822F01900D928A95E1F7E8E4F2EAF8
:1045B000A8E0B0E3822F01900D928A95E1F740E1E7
:1045C00050E3E0E5F2EADA01822F01900D928A953C
:1045D000E1F7E8E5F2EAA8E1B0E3822F01900D925D
:1045E0008A95E1F780E290E3DC01E22F1D92EA95E3
:1045F000E9F73FE130932630E0E6F2EAA8E2B0E3E3
:10460000322F01900D923A95E1F7E8E6F2EAA0E345
:10461000B0E3322F01900D923A95E1F7E0E7F2EA2C
:10462000A8E3B0E3322F01900D923A95E1F7E8E765
:10463000F2EAA0E4B0E3322F01900D923A95E1F74F
:10464000E0E8F2EAA8E4B0E3322F01900D923A9547
:10465000E1F7E8E8F2EAA0E5B0E3322F01900D922D
:104660003A95E1F7E0E9F2EAA8E5B0E3322F0190EC
:104670000D923A95E1F7E8E9F2EAA0E6B0E3322FCD
:1046800001900D923A95E1F7E0EAF2EAA8E6B0E38C
:10469000322F01900D923A95E1F7E8EAF2EAA0E7AD
:1046A000B0E3322F01900D923A95E1F7E0EBF2EA98
:1046B000A8E7B0E3322F01900D923A95E1F7E8EBCD
:1046C000F2EAA0E8B0E3322F01900D923A95E1F7BB
:1046D000E0ECF2EAA8E8B0E301900D922A95E1F748
:1046E000809290309092913060939230709393309A
:1046F00060929430709295304092963050929730FC
:1047000020E030E3209398303093993020929A3013
:1047100030929B3028EA3FE220939C3030939D30CA
:10472000A0EBBFE2A0939E30B0939F3028E030E32F
:104730002093A0303093A130E8EBFFE2E093A23069
:10474000F093A3304093A4305093A53020EC3FE287
:104750002093A6303093A730A8ECBFE2A093A830F6
:10476000B093A93028E130E32093AA303093AB30E6
:10477000E0EDFFE2E093AC30F093AD3028ED3FE2A6
:104780002093AE303093AF30A0EEBFE2A093B030B4
:10479000B093B130E8EEFFE2E093B230F093B33083
:1047A00020EF3FE22093B4303093B53028E430E37B
:1047B0002093B6303093B73020E730E32093B83001
:1047C0003093B93020E530E32093BA303093BB30DA
:1047D00028E730E32093BC303093BD3028E530E348
:1047E0002093BE303093BF3020E830E32093C030B8
:1047F0003093C13020E630E32093C2303093C33091
:1048000028E830E32093C4303093C53028E230E309
:104810002093C6303093C730C093C830D093C9308E
:10482000C093CA30D093CB30C093CC30D093CD302E
:1048300020E330E32093CE303093CF3028E330E3D1
:104840002093D0303093D130C093D230D093D33036
:10485000C093D430D093D530C093D630D093D730D6
:1048600020E430E32093D8303093D9308093DA308D
:104870009093DB30C093DC30D093DD3088E690E35A
:104880008093DE309093DF30E0EEF0E384E5DF01EB
:104890001D928A95E9F708E010E000930431109327
:1048A00005310093083110930931E0920A31F092FA
:1048B0000B3100930C3110930D3124E130E0209343
:1048C0000E3130930F31C0921831D092193184E0FB
:1048D00090E080931A3190931B31C0921C31D0929A
:1048E0001D31E5E0F0E0E0931E31F0931F31C092FE
:1048F0002031D09221312093223130932331E2E1D3
:10490000F0E0E0932C31F0932D3120932E31309351
:104910002F31C0933431D09335318092363190921B
:1049200037316093383170933931C0933A31D09335
:104930003B3160923C3170923D31C0933E31D09317
:104940003F31C0934031D093413140924231509237
:1049500043312092443130924531C0934631D09357
:104960004731C0934831D0934931C0934A31D093F5
:104970004B31C0934C31D0934D31C0934E31D093D5
:104980004F31C0935031D0935131C0935231D093B5
:104990005331E8EAFFE2E0935431F093553120EBD4
:1049A0003FE22093563130935731C0935831D09322
:1049B0005931A8EBBFE2A0935A31B0935B314093D9
:1049C0005C3150935D31E0ECFFE2E0935E31F093B7
:1049D0005F3128EC3FE22093603130936131A0EDEC
:1049E000BFE2A0936231B0936331E8EDFFE2E09360
:1049F0006431F093653120EE3FE2209366313093CD
:104A00006731A8EEBFE2A0936831B0936931E0EF5F
:104A1000FFE2E0936A31F0936B31ECE6F1E320E7DB
:104A2000DF011D922A95E9F7E0927831F092793111
:104A300023E130E020937A3130937B3180938031D1
:104A40009093813146E150E040938231509383311D
:104A500080938431909385314BE150E040938631CF
:104A6000509387310093903110939131E0929231BD
:104A7000F0929331009394311093953180E190E05E
:104A80008093963190939731009398311093993198
:104A900081E190E080939A3190939B3100939C3117
:104AA00010939D3120939E3130939F310093A0311C
:104AB0001093A13169E170E06093A2317093A3314A
:104AC0000093A4311093A5316AE170E06093A631A0
:104AD0007093A7310093A8311093A9314093AA3164
:104AE0005093AB318093B4319093B5312093B6316C
:104AF0003093B73187E28093742F80E18093792FD0
:104B000082E080937A2F10927B2F67E874EA8AE61E
:104B10009FE20E94321267E874EA84E69FE20E94F4
:104B2000321280E694EA8093512F9093522F6CEFCB
:104B300074EA83E59FE20E9432121092592F10927C
:104B40005A2F10925F2F1092602F82E794EA809381
:104B5000512F9093522F0093612F1093622F109238
:104B6000632F61E075EA83E59FE20E94DE11A09267
:104B7000592FB0925A2FB1E0B0935F2F90E080E0B0
:104B80000E947D2C90E08B30910514F08AE090E03B
:104B900080935B2F90935C2F8093612F9093622F73
:104BA00080E694EA8093412F9093422F6CEF74EA51
:104BB00083E49FE20E94321210924F2F1092502FE6
:104BC0008EE494EA8093412F9093422F86E090E008
:104BD0008093492F90934A2F6EE075EA83E49FE219
:104BE0000E94DE1181E090E00E947D2C2091492FEF
:104BF00030914A2F90E021503109821793070CF42D
:104C00009C0120934B2F30934C2FC1E0C093502F29
:104C1000C0934F2F80E694EA8093312F9093322FE8
:104C20006CEF74EA83E39FE20E9432121092392FF4
:104C300010923A2F10923F2F1092402F8CE394EA5B
:104C40008093312F9093322F69E175EA83E39FE2DD
:104C50000E94DE11C093402F10923F2F82E090E01F
:104C60008093392F90933A2FDF91CF911F910F911D
:104C7000FF90EF90DF90CF90BF90AF909F908F907C
:104C80007F906F905F904F903F902F900895CF93BB
:104C9000DF93CDB7DEB72597CDBFDEBF88ED90E0BF
:104CA00084BF9093610080E094E2A4EFB0E0809331
:104CB000022890930328A0930428B093052880919C
:104CC00002068660809302068091000681608093D0
:104CD0000006809102068F7C809302068091A000DE
:104CE0008F788093A00080910206806180930206F5
:104CF0001092E20581E08093E40583E08093010A4D
:104D00008FEF90E08093260A9093270A80E890E046
:104D10008093380A9093390A80933A0A90933B0A19
:104D200080933C0A90933D0A8BE08093000A809127
:104D3000E50581608093E5058091E50582608093BB
:104D4000E505E0E8FAE037E02FEF90E885E0318311
:104D50002487958780837096E03C4AE0F407B9F792
:104D600080E094E080934D2990934E2980914D29C5
:104D700090914E292FEF30E0B9010E94702E609380
:104D80004B2970934C2980914D2990914E29E8EE42
:104D9000F3E0BF010E94702E6093492970934A2965
:104DA00080914D2990914E29BF010E94702E8093D1
:104DB0004729909348292093BC0A3093BD0A8091DB
:104DC000B50A81608093B50A84E08093B00A80912F
:104DD000B00A81608093B00A789461E070E08CE161
:104DE0000E94260261E070E08CE10E948B0261E08B
:104DF00070E08DE10E94260261E070E08DE10E948A
:104E00008B0261E070E083E20E94260261E070E0C4
:104E100083E20E948B0261E070E08EE10E94260234
:104E200061E070E08EE10E948B020E94F80220E0B7
:104E3000E1E0263038F032EF320F373020F04FEF1C
:104E400050E012C0322F30930606E09308063091EE
:104E50000B0630FFFCCF5FB7F894309110064091FD
:104E600011065FBF542F432F6A01550FEE08FF084C
:104E70006C0D7D1D8E1D9F1D2F5F2031D1F661159C
:104E800071058105910511F00E94442B80916229E2
:104E9000811145C010925329109254298FEF8093AD
:104EA0005729809358298093592980935A298093B0
:104EB0005B2980935C2981E080935D2910925E29B3
:104EC00010925F29109255291092562980917029CD
:104ED00090917129892B31F481E599E280937029B1
:104EE00090937129E0914F29F0915029309721F04A
:104EF00081E599E28483958381E599E280934F2946
:104F000090935029109260291092612982E793EAC8
:104F1000809351299093522981E080936229009ACD
:104F200088E799E280935329909354298CE291E089
:104F300080935E2990935F2980911B2F90911C2F65
:104F4000A0911D2FB0911E2F843CE9E09E07A10582
:104F5000B10520F484EC99E0A0E0B0E080931B2F31
:104F600090931C2FA0931D2FB0931E2F81E59FE2DD
:104F70000E94CF0E81E49FE20E94011085E29FE231
:104F80000E9430081092752F80917A2F823018F08D
:104F900098E09093752F8093782F62E370E080E023
:104FA00090E00E94270360917B2F80E79FE20E94A0
:104FB0008F0768EE73E080E090E00E94270360E3D3
:104FC00080E79FE20E9421100BE416E4C8010197DC
:104FD000F1F760E380E79FE20E942110C80101978A
:104FE000F1F760E380E79FE20E94211083E592E001
:104FF0000197F1F760E280E79FE20E942110609143
:10500000752F606240E080E79FE20E943A1084E0E2
:105010008093762F40E06CE080E79FE20E943A1098
:105020000E947E1082E08093772F40E066E080E768
:105030009FE20E943A1040E062E080E79FE20E9417
:105040003A108BE39FE10197F1F710927B2F60E01C
:1050500080E79FE20E948F070E947E1067E874EA53
:105060008AE69FE20E94DE1167E874EA84E69FE226
:105070000E94DE118DE00E948B018CE00E948B016A
:105080005EE5452E54E9552E5FE3652E712C48E010
:10509000242E0E94F8020091042E1091052E2091DA
:1050A000062E3091072E6B017C01C01AD10AE20A4C
:1050B000F30A6093042E7093052E8093062E90932E
:1050C000072E8091002E9091012EA091022EB0917A
:1050D000032E181619061A061B06CCF58C199D0905
:1050E000AE09BF098093002E9093012EA093022E4B
:1050F000B093032E181619061A061B0644F1F894ED
:10510000E091FE2DF091FF2DEE0FFF1FE058FC45C2
:1051100080819181DC01ED91FC910480F581E02D8D
:1051200009951092002E1092012E1092022E1092CC
:10513000032E1092FE2D1092FF2D10927B2F60E017
:1051400080E79FE20E948F070E947E1078948091F2
:105150006E2F90916F2F892B09F446C0F89480919F
:10516000002E9091012EA091022EB091032E1816C0
:1051700019061A061B063CF020927B2F60E080E7A0
:105180009FE20E948F074092002E5092012E609263
:10519000022E7092032E0E947E1060E080E00E943A
:1051A000511040916E2F50916F2F60916A2F709126
:1051B0006B2F80E79FE20E94C00167E874EA8AE6ED
:1051C0009FE20E94DE1161E081E00E945110409157
:1051D000682F5091692F6091642F7091652F80E73F
:1051E0009FE20E94C00178948091E7319091E8316C
:1051F000181619060CF0FAC001978093E7319093C6
:10520000E8318091FC2D9091FD2DDC01ED91FC9118
:105210000190F081E02DB701A60109952091FC2DA8
:105220003091FD2DC9010296E8E7F9E2225D3E4F7B
:10523000AC010196DA01A85ABD4FAC91B0E0A45080
:10524000B34D6C91DA01A45DBE4FAC91B0E0A450B7
:10525000B34D7C91DA014C91A42FB0E0A450B34D32
:105260004C9140837183628333962817390701F785
:105270000E94570328EE33E040E050E00E94FC2CEF
:10528000109278291092792920FFDCC081E0809368
:105290007A29F894D090182F80911B2F90911C2F71
:1052A000A0911D2FB0911E2F892B8A2B8B2BD9F00B
:1052B0000E94F8020091722910917329209174299B
:1052C00030917529601B710B820B930B00911B2F82
:1052D00010911C2F20911D2F30911E2F60177107E8
:1052E00082079307C8F20E94F802609372297093B4
:1052F00073298093742990937529E091232FF0915D
:10530000242F309759F040911F2F5091202F6091FA
:10531000212F7091222F8D2D0995D82EE090702984
:10532000F09071298D2C912CB12CA12CE114F10459
:1053300009F48BC0F70134848091192F90911A2FB2
:105340008436910508F41486D701ED91FC91828191
:1053500093818C839D8319821A821B82DD2091F1B7
:1053600087010A5F1F4FF0E0E0E0D8012D918D0129
:10537000222321F11296CC90CC2001F130E050E0B4
:1053800040E02F5F3F4F4F4F5F4FC501B4010E9478
:10539000602E9B01AC018C2D90E0B0E0A0E0BC0140
:1053A000CD016F5F7F4F8F4F9F4F0E94602EA1E016
:1053B000B0E0AC0FBD1FAE0FBF1F8C933196E33032
:1053C000F10599F609811A812B81F70145855685EA
:1053D00062817381C701EC81FD810995D7011C961B
:1053E0003C921C971496ED90FC90A0CF8091E131F7
:1053F0000E94D302892B19F58091DC31811101CFF4
:1054000081E08093DC31E1E0F0E0E093E731F0937C
:10541000E831E091FE2DF091FF2DEE0FFF1FE058D7
:10542000FC4580819181DC01ED91FC910284F38542
:10543000E02D09958111E5CE0E94CB12E2CE1092AB
:10544000DC31DFCE10927A2924CF80916E299091A1
:105450006F298C010F5F1F4F00936E2910936F29E6
:105460004997B4F10E945703C0906A29D0906B29E4
:10547000E0906C29F0906D299B01AC012C193D093D
:105480004E095F0921F421E030E040E050E0E8EE11
:10549000F3E00E9FB0010F9F700D1E9F700D112441
:1054A000072E000C880B990B0E94FC2C2093192FBF
:1054B00030931A2F10926E2910926F290E94570371
:1054C00060936A2970936B2980936C2990936D295E
:1054D0007894C090042ED090052EE090062EF09087
:1054E000072E0E94F802FBE1CF0EF1E4DF1EE11C63
:1054F000F11CC61AD70AE80AF90A2CE1C21621E4FF
:10550000D206E104F10430F09BE1C92E91E4D92EDA
:10551000E12CF12C42E0C416D10450F0CC0CDD1C7F
:10552000CC0CDD1C85E0C81AD108C6010197F1F743
:10553000809176299091772901968093762990938E
:105540007729A0E0B0E0AB2B09F4A3CD0E940000C6
:105550009ECD8F929F92AF92BF92CF92DF92EF92A9
:10556000FF92CF93DF93EC01688179818A819B81DF
:10557000611571058105910521F464E279ED8BE5F2
:1055800097E02DE133EF41E050E00E94992C490172
:105590005A019B01AC01A7EAB1E40E94B82C6B014F
:1055A0007C01ACEEB4EFA50194010E94C62CC60E9E
:1055B000D71EE81EF91EF7FE06C081E0C81AD10802
:1055C000E10880E8F80AC882D982EA82FB82C70132
:1055D000B6019F77DF91CF91FF90EF90DF90CF9052
:1055E000BF90AF909F908F9008958F929F92AF92AF
:1055F000BF92CF92DF92EF92FF9260910728709155
:1056000008288091092890910A2861157105810563
:10561000910521F464E279ED8BE597E02DE133EF1C
:1056200041E050E00E94992C49015A019B01AC01D4
:10563000A7EAB1E40E94B82C6B017C01ACEEB4EF98
:10564000A50194010E94C62CC60ED71EE81EF91EA5
:10565000F7FE06C081E0C81AD108E10880E8F80A20
:10566000C0920728D0920828E0920928F0920A28D0
:10567000C701B6019F77FF90EF90DF90CF90BF906A
:10568000AF909F908F90089560930728709308289B
:105690008093092890930A280895BB274A3031F453
:1056A000992322F4BDE2909581959F4F0C94592B3C
:1056B000BB27FB015527AA27880F991FAA1FA417EC
:1056C00010F0A41B83955051B9F7A05DAA3308F0E0
:1056D000A95DA193009779F7B111B1931192CB0114
:1056E0000C94722BDC01FC01672F71917723E1F799
:1056F000329704C07C916D9370836291AE17BF079F
:10570000C8F30895E89409C097FB3EF490958095FE
:10571000709561957F4F8F4F9F4F9923A9F0F92F77
:1057200096E9BB279395F695879577956795B795F5
:10573000F111F8CFFAF4BB0F11F460FF1BC06F5FDB
:105740007F4F8F4F9F4F16C0882311F096E911C0ED
:10575000772321F09EE8872F762F05C0662371F00E
:1057600096E8862F70E060E02AF09A95660F771F22
:10577000881FDAF7880F9695879597F908950E9404
:10578000D22B0C94432C0E94352C38F00E943C2CD8
:1057900020F0952311F00C942C2C0C94322C112415
:1057A0000C94772C0E94542C70F3959FC1F3950FA5
:1057B00050E0551F629FF001729FBB27F00DB11D95
:1057C000639FAA27F00DB11DAA1F649F6627B00D25
:1057D000A11D661F829F2227B00DA11D621F739F0E
:1057E000B00DA11D621F839FA00D611D221F749F1C
:1057F0003327A00D611D231F849F600D211D822F63
:10580000762F6A2F11249F5750409AF0F1F0882389
:105810004AF0EE0FFF1FBB1F661F771F881F9150B6
:105820005040A9F79E3F510580F00C942C2C0C940D
:10583000772C5F3FE4F3983ED4F386957795679590
:10584000B795F795E7959F5FC1F7FE2B880F911DE0
:105850009695879597F9089597F99F6780E870E086
:1058600060E008959FEF80EC089500240A941616D6
:10587000170618060906089500240A94121613063E
:10588000140605060895092E0394000C11F48823CC
:1058900052F0BB0F40F4BF2B11F460FF04C06F5FE8
:1058A0007F4F8F4F9F4F089557FD9058440F551FBE
:1058B00059F05F3F71F04795880F97FB991F61F092
:1058C0009F3F79F087950895121613061406551F09
:1058D000F2CF4695F1DF08C0161617061806991F75
:1058E000F1CF86957105610508940895E894BB276A
:1058F00066277727CB0197F9089503D080819927F0
:105900000895FC01E050FC4E0895262FAF93BF93FD
:10591000E0E0F0E1328131FDFDCFDC01A050BC4E72
:105920002C932DE924BF23E020830196BF91AF91F2
:105930000895052E97FB1EF400940E94B02C57FD8D
:1059400007D00E94FC2C07FC03D04EF40C94B02C22
:1059500050954095309521953F4F4F4F5F4F08959B
:1059600090958095709561957F4F8F4F9F4F0895CB
:105970000E941E2DA59F900DB49F900DA49F800D99
:10598000911D11240895B7FF0C94B82C0E94B82CD7
:10599000821B930B08952F923F924F925F926F92CA
:1059A0007F928F929F92AF92BF92CF92DF92EF92AF
:1059B000FF920F931F93CF93DF93CDB7DEB7CA1B30
:1059C000DB0BCDBFDEBF09942A88398848885F8405
:1059D0006E847D848C849B84AA84B984C884DF808F
:1059E000EE80FD800C811B81AA81B981CE0FD11D73
:1059F000CDBFDEBFED010895A1E21A2EAA1BBB1B8D
:105A0000FD010DC0AA1FBB1FEE1FFF1FA217B3078A
:105A1000E407F50720F0A21BB30BE40BF50B661FA0
:105A2000771F881F991F1A9469F760957095809564
:105A300090959B01AC01BD01CF010895A29FB001DB
:105A4000B39FC001A39F700D811D1124911DB29FB2
:105A5000700D811D1124911D08955058BB27AA2750
:105A60000E94452D0C94432C0E94352C38F00E9446
:105A70003C2C20F039F49F3F19F426F40C94322C7E
:105A80000EF4E095E7FB0C942C2CE92F0E94542C8B
:105A900058F3BA17620773078407950720F079F463
:105AA000A6F50C94762C0EF4E0950B2EBA2FA02DB3
:105AB0000B01B90190010C01CA01A0011124FF27BB
:105AC000591B99F0593F50F4503E68F11A16F040B6
:105AD000A22F232F342F4427585FF3CF46953795B5
:105AE0002795A795F0405395C9F77EF41F16BA0B7A
:105AF000620B730B840BBAF09150A1F0FF0FBB1F28
:105B0000661F771F881FC2F70EC0BA0F621F731F70
:105B1000841F48F4879577956795B795F7959E3FCD
:105B200008F0B0CF9395880F08F09927EE0F97955E
:105B3000879508950E94A12D6894B1110C94772C3B
:105B400008950E945C2C88F09F5798F0B92F9927F0
:105B5000B751B0F0E1F0660F771F881F991F1AF058
:105B6000BA95C9F714C0B13091F00E94762CB1E01B
:105B700008950C94762C672F782F8827B85F39F01A
:105B8000B93FCCF3869577956795B395D9F73EF4F1
:105B900090958095709561957F4F8F4F9F4F089599
:105BA0009F930E94DA2D0F9007FCEE5F0C94032E5A
:105BB0000C94322C0E945C2CD8F3E894E0E0BB27D4
